:1000000012C037C02BC02AC029C028C027C026C0B4
:1000100025C024C023C022C021C020C01FC01EC0D4
:100020001DC01CC01BC011241FBECFE5D4E0DEBF25
:10003000CDBF10E0A0E6B0E0ECE9F0E002C0059032
:100040000D92AC36B107D9F720E0ACE6B0E001C0C4
:100050001D92AE36B207E1F709D01EC0D1CF87E0BE
:1000600087BB11BA81E087B986B90895F8DF789423
:10007000FFCF1F920F920FB60F9211248F93109201
:100080006D0010926C008091600088BB8F910F9082
:0C0090000FBE0F901F901895F894FFCF42
:0C009C0001000000000000000000010056
:00000001FF
